:020000040800F2
:1000000080040020450100088914000881140008BC
:10001000851400086B1000081B1F0008000000007A
:100020000000000000000000000000007919000836
:100030003911000800000000111500088D1A000891
:100040005F0100085F0100085F0100085F01000810
:100050005F0100085F0100085F0100085F01000800
:100060005F0100085F0100085F0100085F010008F0
:100070005F0100085F0100085F0100085F010008E0
:100080005F0100085F0100085F0100085F010008D0
:100090005F0100085F0100085F010008EB12000823
:1000A0005F0100085F0100085F0100085F010008B0
:1000B000F11A00085F0100085F0100085F010008F5
:1000C0005F0100085F0100085F0100085F01000890
:1000D0005F010008C11C00085F0100085F01000803
:1000E000B11200085F0100085F0100085F0100080D
:1000F0005F0100085F0100085F0100085F01000860
:100100005F0100085F0100085F0100085F0100084F
:100110005F0100085F0100085F0100085F0100083F
:100120005F0100085F0100085F0100085F0100082F
:10013000DFF80CD000F03EF900480047F922000833
:10014000800400200648804706480047FEE7FEE797
:10015000FEE7FEE7FEE7FEE7FEE7FEE7FEE7FEE777
:10016000911A00083101000810B5044604E00B782C
:1001700000F8013B03B1491C521EF8D2204610BDC5
:100180000FB400B58DB010A909900B9000914FF0FD
:10019000FF300A9000200C90054806900548079013
:1001A0006A4609A80F9900F0D7F80DB05DF814FB66
:1001B00075030008930300082DE9FF5F1D464FF00B
:1001C000FF3BD5E9014691465F464FF00008A9691B
:1001D0007F1C01988847296A824688470028F6D103
:1001E000BAF1FF3F0CD024F4C064002E19DD600684
:1001F00014D5BAF12B0F09D0BAF12D0F0ED103E0AF
:10020000584604B0BDE8F09F44F48064A9697F1C9F
:1002100001988847761E8246002E02DDBAF1300F23
:1002200003D0B9F1000F26D032E0A969761E44F45C
:1002300000747F1C019888478246002E05DDBAF1C4
:10024000780F06D0BAF1580F03D0B9F1000F10D0D3
:100250001EE0B9F1000F02D0B9F1100F18D1A96951
:10026000761E24F400747F1C019888478246102073
:1002700002E0082000E00A20814609E008FB0908A6
:10028000A969761E44F400747F1C01988847824651
:10029000002E05DD4946504600F04AF80028EDDA08
:1002A000E96901988847A00502D46FF00100A8E72A
:1002B000E00725D1600613D5600502D5C8F100001E
:1002C00000E0404629680A1D2A600968220501D518
:1002D000087015E0220701D5088011E008600FE0E2
:1002E0002868011D29600068210502D580F800807A
:1002F00006E0210702D5A0F8008001E0C0F80080E8
:1003000038467EE730B50B46014600202022012406
:1003100009E021FA02F59D4205D303FA02F5491BD3
:1003200004FA02F52844151EA2F10102F1DC30BDE9
:100330003A2800D2303820F02002412A01D3A2F11D
:100340003700884201D34FF0FF30704702681144F4
:100350001378016018467047D1600449516104491F
:10036000116200211161114600F03CB84D030008F4
:10037000D9030008426842B1016811F8013B23B17A
:10038000521EC0E90012184670470121C160881E44
:10039000704742685AB1C368016843B983688B42A9
:1003A00005D0491E521CC0E90012002070474FF0D2
:1003B000FF307047064C074D06E0E06840F001034F
:1003C00094E8070098471034AC42F6D3FFF7B4FE28
:1003D000C02E0008E02E0008C0B24FF4F05100F02B
:1003E00097B900002DE9F34F8BB04FF0000801F1F1
:1003F0000C000C464FF0010B46460DF1080A019027
:100400006269012101989047051E2DD0252D2CD021
:10041000216A8847C0B16269012101989047216A29
:1004200088470028F7D1411E62690198904700E093
:10043000761CA1690B988847216A88470028F7D164
:10044000E1690B988847DBE7A1690B988847074665
:10045000A84201D1761CD3E7E1690B9888477F1C3D
:1004600002D1B8F1000F6FD046E1002762693D4626
:100470003946019890472A2804D1626901210198E0
:1004800090470125DFF88492626901210198904725
:10049000A0F130010A290AD24F45E5DC07EB8701BC
:1004A00000EB4107303FDFD445F01005ECE7E906EB
:1004B00001D46FF000476C280AD04C2814D068286B
:1004C00015D06A280DD074281CD07A281AD01DE0C7
:1004D00062690121019890476C2802D045F004051B
:1004E00014E045F002050DE045F020050AE06269E0
:1004F000012101989047682802D045F0080505E0E1
:1005000045F400656269012101989047C4E90157EB
:1005100065283DD019DC58287AD00CDC452837D026
:1005200004DC252826D0412831D131E046282FD0BF
:1005300047282CD12CE05B2877D0612828D063286D
:100540007CD0642823D15AE0D0E06F2848D008DC62
:1005500066281DD067281BD0692821D06E2816D1A7
:1005600027E0702845D0732868D0752847D07828B0
:100570000DD14DE0A1690B988847054625283FF429
:1005800069AFE1690B9888476D1C3FF46AAFB3E02F
:1005900023466A466FF001000B99AFF300809EE09E
:1005A00045F040006060A80723464FF0000236D4B3
:1005B0003EE0E8077FF447AF2068011D2160006836
:1005C000290501D506701BE7290701D5068017E725
:1005D000A90703D5F117C0E9006111E706600FE72D
:1005E00045F040006060A80723464FF0080216D48B
:1005F0001EE040F60E0125EA0100606016E045F0BD
:1006000040006060A80723464FF00A0207D40FE0BD
:1006100045F040006060A80708D5234610226FF01F
:1006200001000B99AFF3008059E007E02346102248
:100630006FF001000B99FFF7BFFD50E04FF000098C
:100640004F464B46632802D05B2806D040E0E806C0
:1006500001D40120A06001273AE0626901210198DC
:1006600090475E2805D14FF001096269494601981B
:100670009047216939B900210A46534643F82120A1
:10068000491C0829FADBB0B3216969B9C11700EB2D
:10069000D16253110AEB830122F01F02821A01205A
:1006A0000B68904003430B606269012101989047F9
:1006B0005D28E8D1B9F1000F09D00020514651F86A
:1006C0002020D24341F82020401C0828F7DB02AB51
:1006D000224600976FF001000B99AFF300800028CD
:1006E0000CDA401C08D1BBF1000F05D04FF0FF30F1
:1006F0000DB0BDE8F08FFFE74046F9E7E90701D10B
:1007000008F1010806444FF0000B79E6CCCCCC0C84
:100710007F2801D9002208E0064A02EB5002C007F8
:10072000127800D1120902F00F0201209040084017
:1007300070470000802E000821B1826842F001025B
:10074000826003E0826822F001028260704700004C
:1007500010B504461248844208D10121401501F029
:1007600091F80021601501F08DF817E00D488442E2
:1007700008D10121001501F085F80021201501F0B4
:1007800081F80BE00848844208D10121C80301F038
:1007900079F800214FF4004001F074F810BD00001A
:1007A0000024014000280140003C01400146002097
:1007B0008A6802F004020AB1012000E000207047BC
:1007C0000146C86C80B270470246002013680B4097
:1007D0000BB1012000E000207047014600208A682C
:1007E00002F008020AB1012000E00020704700007A
:1007F00030B502460020002350680F4C20400D7990
:100800000C6844EA05242043506090680B4C20405B
:10081000D1E902542C434D7944EA450420439060C9
:10082000D06A20F470000C7C641EE4B2234340EADA
:100830000350D06230BD0000FFFEF0FFFDF7F1FF76
:10084000F0B504460D4600200021092D11DDE068B9
:10085000A5F10A0606EB4607072606FA07F18843C4
:10086000A5F10A0606EB460603FA06F10843E06026
:100870000CE0206905EB4507072606FA07F18843D7
:1008800005EB450603FA06F108432061072A0FDA53
:10089000606B561E06EB86071F2606FA07F1884393
:1008A000561E06EB860605FA06F10843606322E051
:1008B0000D2A0FDA206BD61F06EB86071F2606FAD5
:1008C00007F18843D61F06EB860605FA06F10843B2
:1008D000206310E0E06AA2F10D0606EB86071F26F2
:1008E00006FA07F18843A2F10D0606EB860605FA23
:1008F00006F10843E062F0BD816841F008018160C3
:10090000704721B1826842F4A002826003E08268ED
:1009100022F4A00282607047816841F00401816086
:100920007047000000B587B001214FF4047000F05B
:1009300099FF4FF4004000F079FF0120ADF8180056
:1009400000208DF81B0006A9174800F0F3FC17489B
:10095000FFF7FEFE002001908DF808008DF80900D9
:100960004FF4602003900020049001208DF81400C3
:1009700001A90E48FFF73CFF01210C48FFF7DCFE00
:100980000A48FFF7B9FF00BF0848FFF726FF002815
:10099000FAD10648FFF7C0FF00BF0448FFF706FF83
:1009A0000028FAD107B000BD00100140002401402A
:1009B00070B50024002516E0072301220A210C4807
:1009C000FFF73EFF01210A48FFF79BFF00BF02210E
:1009D0000748FFF7F9FE0028F9D00548FFF7F0FEB9
:1009E0000444681CC5B2102DE6DBC4F30F1070BDC3
:1009F0000024014010B56FF0040001F033F80848FE
:100A00000068C0080749B0FBF1F0074908600846D4
:100A1000008880B24FF47A7148430449086010BDE1
:100A20003800002040420F001C0000202000002061
:100A3000134A12684FF0E0235A6100229A611A4665
:100A4000126942F001021A610CE000BF4FF0E0228F
:100A5000116901F001021AB101F48032002AF5D0C7
:100A6000421E90B20028F0D14FF0E022126922F02D
:100A700001024FF0E0231A6100229A6170470000E2
:100A80002000002008B50121282000F0EBFE032003
:100A90008DF8020048208DF803004FF40050ADF8A7
:100AA000000069460D4800F045FC4FF48040ADF869
:100AB00000006946094800F03DFC4FF40040ADF8E5
:100AC00000006946054800F035FC4FF48070ADF831
:100AD00000006946024800F02DFC08BD000C0140F2
:100AE0000014014010B5FFF7CDFF10BD70B50446EE
:100AF000002504F0010038B14FF40051144800F013
:100B0000A4FC08B945F0010504F0020038B14FF427
:100B100080410F4800F099FC08B945F0020504F047
:100B2000040038B14FF40041094800F08EFC08B9C8
:100B300045F0040504F0080038B14FF48071054811
:100B400000F083FC08B945F00805284670BD000098
:100B5000000C01400014014008B50121402000F0C4
:100B600081FE7C20ADF8000003208DF802001020EB
:100B70008DF803006946034800F0DCFBFF2000F01D
:100B800007F808BD0018014010B5FFF7E5FF10BDDC
:100B900010B5044604F0010018B140210F4800F0E0
:100BA00068FC04F0020018B104210C4800F061FC5C
:100BB00004F0040018B10821084800F05AFC04F0C1
:100BC000080018B11021054800F053FC04F0100093
:100BD00018B12021014800F04CFC10BD0018014064
:100BE00070B5054605F0010068B14021284800F0C5
:100BF00035FC04460CB9012000E0002002464021EB
:100C0000234800F038FC05F0020068B104212048B8
:100C100000F024FC04460CB9012000E0002002464C
:100C200004211B4800F027FC05F0040068B10821EE
:100C3000174800F013FC04460CB9012000E0002026
:100C400002460821124800F016FC05F0080068B1C1
:100C500010210F4800F002FC04460CB9012000E00E
:100C60000020024610210A4800F005FC05F01000A3
:100C700068B12021064800F0F1FB04460CB90120C0
:100C800000E0002002462021014800F0F4FB70BD86
:100C90000018014070B5002419E004F1B001C8B299
:100CA000002100F011F90021084600F00DF90021A3
:100CB000102000F009F9002505E00121FF2000F0D7
:100CC00003F9681CC5B2802DF7DB601CC4B2082C88
:100CD000E3DB70BD70B5002419E004F1B001C8B2C7
:100CE000002100F0F1F80021084600F0EDF80021A5
:100CF000102000F0E9F8002505E00121002000F0B7
:100D0000E3F8681CC5B2802DF7DB601CC4B2082C68
:100D1000E3DB70BD08B50121042000F0A3FDA02095
:100D2000ADF8000010208DF8030003208DF80200BC
:100D300069460F4800F0FEFAA0210D4800F099FB2B
:100D40000121202000F08EFD4FF4B050ADF80000DE
:100D500010208DF8030003208DF802006946054835
:100D600000F0E8FA4FF4B051024800F082FB08BDF1
:100D7000000801400014014010B5FFF7CBFF00F060
:100D800003F8FFF787FF10BD10B54FF480511948E5
:100D900000F06FFB0A20FFF74BFE4FF4805115481F
:100DA00000F065FB0A20FFF743FE4FF48051114825
:100DB00000F05FFB0021AE2000F086F80021A120AA
:100DC00000F082F80021C82000F07EF800218D207C
:100DD00000F07AF80021142000F076F80021AF200E
:100DE00000F072F8FFF776FF0021084600F004F8E3
:100DF00010BD00000014014070B504460D4605F119
:100E0000B001C8B2002100F05FF8102141EA1410CF
:100E1000002100F059F804F00F00002100F054F810
:100E200070BD00002DE9F04107460E469046A8F13E
:100E30002000C5B27F2F02DD0027B01CC6B23146AC
:100E40003846FFF7D9FF002408E004EB05110F4AEC
:100E5000505C012100F038F8601CC4B2082CF4DBAF
:100E6000701CC1B23846FFF7C7FF002409E004EB4D
:100E700005110831054A505C012100F025F8601C7D
:100E8000C4B2082CF3DBBDE8F08100009026000816
:100E90002DE9F04104460F46154600260EE0AA5DF6
:100EA00039462046FFF7BEFF04F10800C4B2782C93
:100EB00002DD0024B81CC7B2701CC6B2A85D0028B1
:100EC000EDD1BDE8F081000070B504460E462EB1AC
:100ED0004FF480611A4800F0CCFA04E04FF48061CE
:100EE000174800F0C4FA4FF40071154800F0BFFA3B
:100EF000002517E02021134800F0B9FA04F0800023
:100F000020B180210F4800F0B4FA03E080210D48A1
:100F100000F0ADFA20210B4800F0ABFA6006040E99
:100F2000681CC5B2082DE5DB4FF40071044800F0E1
:100F3000A0FA4FF48061024800F09BFA70BD0000F7
:100F4000001401400008014010B500F003F800F063
:100F500011F810BD08B51C208DF8000000208DF898
:100F600001008DF8020001208DF80300684600F0B2
:100F70008DFA08BD0EB50121084600F063FC40F271
:100F8000E730ADF804004720ADF800000020ADF8D0
:100F90000600ADF8020069464FF0804000F03EFECA
:100FA00001221146900700F02FFE0121880700F072
:100FB0000EFE0EBD08B50121042000F053FC4FF4D5
:100FC0000070ADF8000003208DF8020018208DF8A5
:100FD00003006946074800F0ADF94FF48060ADF8B2
:100FE000000004208DF803006946024800F0A2F9D1
:100FF00008BD0000000801401FB50446FFF7DAFFF6
:1010000000F022F80121880300F02CFC009400205D
:10101000ADF80400ADF80600ADF80800ADF80C001E
:101020000C20ADF80A006946064800F001FF0122D5
:1010300040F22551034800F0D5FE0121014800F09F
:101040008EFE1FBD0038014008B525208DF8000038
:1010500001208DF8010000208DF8020001208DF89C
:101060000300684600F012FA08BD00BFFEE700006A
:1010700010B5002443E0234800EB8400807858B387
:10108000204800EB8400C07830BB1E4810F82400D4
:101090001D49097888421FD11A4800EB8400407826
:1010A0001A490978884217D10421194800F0DFF95C
:1010B00047F23050174908600120124901EB8401C2
:1010C000C870104800EB840043780E4810F82420C4
:1010D000214611A000F024FF0A4800EB8400C078EC
:1010E00060B1084800EB84004078084909788842DC
:1010F00004D00020034901EB8401C870641C032C58
:10110000B9DB10BD500000201400002015000020A5
:101110000018014008000020416C61726D202564B8
:1011200020747269676765726564212025303264B6
:101130003A253032640D0A007047000070B588B05F
:101140003848007838490978CDE9001037480378E5
:101150003748028837A102A800F0F2FE3A4800782A
:1011600028B902AA00210846FFF792FE04E002AA6D
:1011700000210846FFF78CFE344800780090344880
:1011800003783448027834A102A800F0D9FE02AAFC
:1011900002210020FFF77CFE2B48007800280BDDA1
:1011A0002948027831A102A800F0CAFE02AA04214F
:1011B0000020FFF76DFE11E02E4840792D49097996
:1011C000CDE900102B48437802782BA102A800F04B
:1011D000B7FE02AA04210020FFF75AFE2D4800881E
:1011E0006421484340F6FF7190FBF1F004B20A20FD
:1011F00094FBF0F100FB114594FBF0F61D48407A9A
:101200001C49097A2B463246CDE9001022A102A8DA
:1012100000F096FE02AA06210020FFF739FE08B072
:1012200070BD0000170000201300002012000020F5
:1012300010000020253034642D253032642D2530F7
:10124000326420572564000018000020160000209A
:1012500015000020140000202020253032643A259B
:101260003032643A25303264000000005365743A2D
:10127000202564005000002041303A253032643A85
:10128000253032642041313A253032643A253032FB
:10129000640000000C000020543A2533642E2564BD
:1012A0002041323A253032643A2530326400000061
:1012B00010B54FF4005000F029F818B14FF4005069
:1012C00000F01EF84FF4804000F020F818B14FF401
:1012D000804000F015F84FF4004000F017F818B106
:1012E0004FF4004000F00CF810BD10B54FF48070C2
:1012F00000F00CF818B14FF4807000F001F810BD48
:1013000001490860704700001404014001460020B4
:101310000022074B1B6803EA0102054B14331B68CC
:101320000B4013B10AB1012000E00020704700001B
:10133000000401402DE9F04102460025002600206E
:1013400000230024002791F803C00CF00F0591F84A
:1013500003C00CF0100CBCF1000F03D091F802C0D8
:101360004CEA050591F800C0BCF1000F31D01468BB
:1013700000202BE04FF0010C0CFA00F3B1F800C094
:101380000CEA03069E4220D183004FF00F0C0CFAAA
:1013900003F7BC4305FA03FC4CEA040491F803C0CC
:1013A000BCF1280F06D14FF0010C0CFA00FCC2F87A
:1013B00014C00AE091F803C0BCF1480F05D14FF00A
:1013C000010C0CFA00FCC2F810C0401C0828D1D354
:1013D0001460B1F800C0BCF1FF0F34DD5468002088
:1013E0002EE000F1080C4FF0010808FA0CF3B1F8F8
:1013F00000C00CEA03069E4221D183004FF00F0C7F
:101400000CFA03F7BC4305FA03FC4CEA040491F818
:1014100003C0BCF1280F05D100F1080C08FA0CF844
:10142000C2F8148091F803C0BCF1480F07D100F155
:10143000080C4FF0010808FA0CF8C2F81080401CA4
:101440000828CED35460BDE8F0810246002093689E
:101450000B400BB1012000E0002070470246002045
:10146000D3680B400BB1012000E0002070474161C0
:101470007047016170470AB1016100E04161704746
:1014800000BFFEE700BFFEE77047000070B5002117
:1014900000230F22C47804B3154C246804F4E064DC
:1014A000C4F5E064210AC1F10403CA40447804FA97
:1014B00003F184781440214309010E4C0678A155AC
:1014C000047804F01F050124AC4005786D11AD00CF
:1014D00005F1E025C5F8004109E0047804F01F0596
:1014E0000124AC40044D0678761145F8264070BDC5
:1014F0000CED00E000E400E080E100E0024901437F
:10150000024A1160704700000000FA050CED00E08F
:101510007047000010B50720FFF7E8FA044604F012
:101520000100B0B13220FFF783FA0120FFF7DEFAA5
:1015300000F0010068B15E480078401C5C4908700A
:1015400008460078052801DD00200870012059496F
:10155000087004F00200002852D03220FFF768FA29
:101560000220FFF7C3FA00F00200002848D05048DC
:10157000007806283FD2DFE800F03E03121D283332
:101580004D480088401C80B24B49088040F633012A
:10159000884203DD40F2E470474908802CE0474868
:1015A0000078401CC0B2454908700C2801DD0120BC
:1015B000087021E042480078401CC0B240490870E1
:1015C0001F2801DD0120087016E03E480078401C0D
:1015D000C0B23C490870172801DD002008700BE0FC
:1015E00039480078401CC0B2374908703B2801DDFB
:1015F0000020087000E000BF00BF01202D490870E6
:1016000004F00400002852D03220FFF711FA042021
:10161000FFF76CFA00F00400002848D02448007856
:1016200006283FD2DFE800F03E03121D283322488F
:101630000088401E80B22049088040F2E471884250
:1016400003DA40F633001C4908802CE01B48007880
:10165000401EC0B219490870012801DA0C20087038
:1016600021E017480078401EC0B2154908700128D3
:1016700001DA1F20087016E012480078401EC0B240
:1016800010490870172801DD172008700BE00E487C
:101690000078401EC0B20C4908703B2801DD3B2099
:1016A000087000E000BF00BF01200249087010BDB3
:1016B0001800002019000020100000201200002057
:1016C00013000020140000201500002000B58DB08C
:1016D0002B480078002850D000200C900B900A90E6
:1016E00072B61D22274902A8FEF73EFD00208DF8A4
:1016F0002500254908702249087062B60AA80BAB7C
:101700000CAA22A1009002A8FEF73AFD03282FD1CF
:101710000C98002828DB0C98032825DA0B98182849
:1017200022DA0A983C281FDA1B49DDE90B0201F88E
:1017300022000C9A01EB82010A9848700120164998
:101740000C9A01EB82018870002013490C9A01EB7E
:101750008201C87001201149087011A0DDE90A3228
:101760000C9900F0DDFB07E017A000F0D9FB03E0C7
:1017700002A920A000F0D4FB00BF0DB000BD000006
:101780001B0000205C0000201A0000204125643A64
:1017900025643A2564000000500000201900002054
:1017A00053657420416C61726D20256420746F2034
:1017B000253032643A253032642053756363657393
:1017C00073210D0A000000004572726F723A2054B6
:1017D000696D65206F7574206F662072616E676534
:1017E000212028483C32342C204D3C3630290D0A2B
:1017F000000000004572726F723A20466F726D6190
:101800007420696E636F7272656374212052656320
:1018100065697665643A2025732E205573652041ED
:10182000303A30383A33300D0A00000001460020CB
:10183000034A506820F4404008435060704700005D
:101840000010024029B1064AD2690243044BDA6112
:1018500004E0034AD2698243014BDA617047000019
:101860000010024029B1064A92690243044B9A6172
:1018700004E0034A92698243014B9A617047000079
:101880000010024029B1064AD2680243044BDA60D4
:1018900004E0034AD2688243014BDA6070470000DB
:1018A0000010024030B500210022002400232D4DFD
:1018B0006D6805F00C0121B1042905D0082923D158
:1018C00005E0294D056022E0274D05601FE0254D0C
:1018D0006D6805F47012234D6D6805F4803402259F
:1018E00005EB92421CB9214D554305600BE01D4D9F
:1018F0006D6805F400351DB11C4D5543056002E0CF
:10190000194D5543056002E0174D056000BF00BF4B
:10191000144D6D6805F0F0010909154D6B5C056803
:10192000DD4045600F4D6D6805F4E061090A104D1A
:101930006B5C4568DD4085600A4D6D6805F460515B
:10194000C90A0B4D6B5C4568DD40C560054D6D688F
:1019500005F44041890B074D6B5CC568B5FBF3F599
:10196000056130BD0010024000127A0000093D0000
:101970002400002034000020704710B500F002F869
:1019800010BD00000CB500200190009033480068A5
:1019900040F480303149086000BF3048006800F4EE
:1019A000003000900198401C0190009818B90198EF
:1019B000B0F5A06FF1D12948006800F4003010B1F3
:1019C0000120009001E0002000900098012843D100
:1019D0002348006840F0100021490860084600686C
:1019E00020F0030008600846006840F0020008602C
:1019F0001A484068194948600846406848600846E7
:101A0000406840F4806048600846406820F47C10DC
:101A100048600846406840F4E8104860084600689E
:101A200040F08070086000BF0C48006800F0007053
:101A30000028F9D00948406820F0030007494860B1
:101A40000846406840F00200486000BF0348406814
:101A500000F00C000828F9D10CBD00000010024075
:101A600000200240042808D14FF0E021096941F02C
:101A700004014FF0E022116107E04FF0E021096915
:101A800021F004014FF0E02211617047704700001F
:101A900010B51348006840F001001149086008467D
:101AA0004068104908400E494860084600680E49E1
:101AB00008400B4908600846006820F48020086050
:101AC0000846406820F4FE0048604FF41F0088601C
:101AD000FFF753FF4FF000600449086010BD00009D
:101AE000001002400000FFF8FFFFF6FE08ED00E0E6
:101AF00010B50121880700F076F8002851D00121A7
:101B0000880700F061F82748006858B12548006848
:101B1000401E244908600846006818B9042122487C
:101B2000FFF7A7FC21480068401C204908600846D0
:101B30000068B0F57A7F34D30020086001201C498A
:101B400008701C480078401C1A4908700846007844
:101B50003C2826DB0020087017480078401C1649F6
:101B60000870084600783C281BDB002008701348EA
:101B70000078401C1149087008460078182810DBCE
:101B8000002008700E480078401C0D4908700D4870
:101B90000078072190FBF1F201FB1200401C09497B
:101BA000087010BD0800002000180140000000204F
:101BB0000400002016000020150000201400002062
:101BC0001300002017000020CA430282704721B191
:101BD000028842F00102028004E002884FF6FE73A0
:101BE0001A400280704730B50246002000230024CE
:101BF000158A05EA0103958905EA010413B10CB1C0
:101C0000012000E0002030BD1AB183890B4383819D
:101C100002E083898B4383817047000000220288A1
:101C20001D4B98420ED01D4B98420BD0B0F1804F07
:101C300008D01B4B984205D01A4B984202D01A4B41
:101C4000984204D14FF68F731A404B881A43174BB2
:101C5000984207D0164B984204D04FF6FF431A40E3
:101C6000CB881A4302808B8883850B8803850A4BB7
:101C700098420BD0094B984208D00E4B984205D0A1
:101C80000D4B984202D00D4B984201D10B7A03863E
:101C90000123838270470000002C01400034014082
:101CA0000004004000080040000C0040001000400C
:101CB0000014004000400140004401400048014041
:101CC00010B540F225511A4800F062F868B3184880
:101CD00000F01AF9C4B21748007800B110BD0A2C00
:101CE00001D00D2C0CD114480078002817DD0020FD
:101CF0001249114A1278885401200E4908700EE0EA
:101D00006CB10D490878411C0B4A11700B490C54F9
:101D1000104600781E2802DB00201146087040F2B1
:101D20002551034800F00CF800BF00BFD6E70000C3
:101D3000003801401B0000201A0000205C00002039
:101D400010B50022002340F66A14A14200D100BF62
:101D50000A1201249440A3B2DC43048010BD21B1D7
:101D6000828942F40052828104E082894DF6FF7339
:101D70001A408281704702460020B1F5007F00D1F1
:101D800000BF13880B400BB1012000E0002070471A
:101D900070B50246002400230025002040F66A1694
:101DA000B14200D100BFC1F3421501F01F0301266B
:101DB00006FA03F3012D02D19689334006E0022D85
:101DC00002D1168A334001E0968A33400C12012674
:101DD00006FA04F41688344013B10CB1012000E077
:101DE000002070BDF0B50346002400260025002029
:101DF00040F66A17B94200D100BF1846C1F3421439
:101E000001F01F06012707FA06F5012C01D10C305D
:101E100004E0022C01D1103000E014301AB1076840
:101E20002F43076002E00768AF430760F0BD000082
:101E30002DE9F04786B005460E460024A24600BFB5
:101E4000A1460027B08900B100BF2F462C8A4CF66E
:101E5000FF700440F08804432C82AC894EF6F310E6
:101E60000440B08831890843718908430443AC8138
:101E7000AC8A4FF6FF400440B0890443AC8201A80D
:101E8000FFF710FD1F48874202D1DDF810A001E0E6
:101E9000DDF80CA0A88900F4004040B10AEBCA00AC
:101EA00000EB0A1031684900B0FBF1F807E00AEBDB
:101EB000CA0000EB0A1031688900B0FBF1F8642019
:101EC000B8FBF0F004012009642101FB1089A88906
:101ED00000F4004040B1322000EBC900B0FBF1F04B
:101EE00000F00700044308E0322000EB09106421F1
:101EF000B0FBF1F000F00F0004432C8106B0BDE808
:101F0000F08700000038014001468888C0F30800CF
:101F10007047C1F308028280704700BFFEE70000EF
:101F20000FB4054B10B503A9044A029800F02CF831
:101F300010BC5DF814FB0000D52200084C00002006
:101F40000FB4084B10B504A902AA039800F01CF8BE
:101F5000044602A9002000F0B8F9204610BC5DF844
:101F600014FB0000CB22000802E008C8121F08C1C1
:101F7000002AFAD170477047002001E001C1121F0A
:101F8000002AFBD1704700002DE9FF4F8BB0884637
:101F90000546002606E025280BD0DDE90D12904706
:101FA0006D1C761C28780028F5D10FB03046BDE8AE
:101FB000F08F0024A146A2460122AE4900E004436E
:101FC00015F8013F203B02FA03F00842F7D12878C8
:101FD0002A2810D06FF02F022878A0F130010929AB
:101FE00015D809EB890102EB410144F0020400EB32
:101FF00001096D1CF0E758F8041B5FEA010903D5DD
:1020000044F40054C9F1000944F002046D1C28781E
:102010002E2817D115F8010F44F004042A280ED0F9
:102020006FF02F022878A0F1300109290AD80AEBB5
:102030008A0102EB410100EB010A6D1CF2E758F83E
:1020400004AB6D1C28786C280FD006DC4C2817D008
:1020500068280DD06A2814D104E0742810D07A289A
:102060000FD10DE044F400140AE044F4801401E0C0
:1020700044F440146978814202D104F580146D1C47
:102080006D1C2878692865D006DC00288DD063286F
:1020900027D0642806D15DE06E2808D073282AD0A6
:1020A000752877D0DDE90D129047761CE0E0C4F387
:1020B0000250022809D003280DD0D8F800100428B7
:1020C0000DD00E6008F10408D2E0D8F80010F21725
:1020D000C1E90062F6E7D8F800100E80F2E70E7052
:1020E000F0E718F8041B8DF8001000208DF80100AF
:1020F000EB46012003E058F804BB4FF0FF306107C6
:102100004FF0000701D40AE07F1C57450DDA8742E3
:10211000FADB1BF807100029F6D106E07F1C874286
:10212000FCDB1BF807100029F8D1DDE90D23A9EB32
:1021300007008146214600F0B1F83044C61904E09A
:10214000DDE90D121BF8010B90477F1EF8D22146E6
:10215000484688E058F8040BC4F302514FF00A0BCC
:10216000032900D100B2042900D140B2002802DACC
:1021700040422D2102E0210505D52B218DF82410A8
:10218000012104E006E0E10710D02021F6E708AFC6
:10219000089113E058F8040BC4F302514FF00A0BF6
:1021A000032900D180B2042900D1C0B20021EEE79A
:1021B0005946FEF7A7F8303107F8011D0028F7D17E
:1021C000ADEB070000F1200B600702D524F480344A
:1021D00001E04FF0010ADA4502DDAAEB0B0000E056
:1021E0000020824600EB0B0108980144A9EB010096
:1021F0000A90E00306D4DDE90D2321460A9800F099
:102200004DF806444FF0000908E009A911F809004B
:10221000DDE90D12904709F10109761C08998945FD
:10222000F3DBE0030CD5DDE90D2321460A9800F02D
:1022300035F8064404E0DDE90D1230209047761CA5
:10224000BAF10001AAF1010AF5DC05E0DDE90D12A1
:1022500017F8010B9047761CBBF10001ABF1010BA5
:10226000F4DC0A982146DDE90D2300F005F8064468
:102270006D1C97E6092801002DE9F0410446002570
:102280001E461746880404D405E039462020B0478E
:102290006D1C641EF9D52846BDE8F0812DE9F0419A
:1022A000044600251E469046C80301D5302700E0AD
:1022B0002027880404D505E041463846B0476D1C08
:1022C000641EF9D52846BDE8F0810A68531C0B60EE
:1022D0001070704770B504460D46E1B20548FFF72F
:1022E00018FE00BF80210348FFF745FD0028F9D004
:1022F000204670BD003801404FF44070FFF7FEF8F3
:10230000FEF742FCFEF776FBFEF736FDFEF71CFEFD
:10231000FEF7E8FB4FF4E130FEF76EFEFEF702FB3E
:1023200004212D48FFF7A5F8FEF7D4FC2BA20021CD
:102330000846FEF7ADFDC820FEF77AFBFEF7CAFCA3
:102340002AA0FFF7EDFD46E0FFF7C0F92D48007821
:10235000002836D000202B490870FEF7EFFE012040
:10236000FEF73EFCFEF784FEFEF722FB26490880BE
:102370000846008840F6B831884210DD042116482E
:10238000FFF775F82148007800281AD101201F496D
:1023900008701D4801881EA0FFF7C2FD11E01B4810
:1023A000007870B10020194908702348006818B9F6
:1023B00004210948FFF75DF8134801881FA0FFF7C3
:1023C000AFFDFFF7A7F82748007820B10020254986
:1023D0000870FEF7B3FEB7E700180140536D617255
:1023E00074436C6F636B20496E697400536D617246
:1023F00074436C6F636B20737461727465642E0D2B
:102400000A000000040000200C0000200E00002044
:102410005741524E494E473A2054656D70206F76B1
:102420006572207468726573686F6C642120414422
:10243000433D25640D0A00000800002054656D70BE
:1024400065726174757265206261636B20746F20C0
:102450006E6F726D616C2E204144433D25640D0A00
:102460000000000019000020000000000000000033
:10247000002F000000000700070000147F147F14E5
:1024800000242A7F2A12006264081323003649556B
:10249000225000000503000000001C224100000043
:1024A00041221C000014083E08140008083E0808D9
:1024B000000000A060000008080808080000606034
:1024C0000000002010080402003E5149453E000073
:1024D000427F4000004261514946002141454B3155
:1024E000001814127F10002745454539003C4A4921
:1024F0004930000171090503003649494936000693
:102500004949291E000036360000000056360000FA
:102510000008142241000014141414140000412275
:10252000140800020151090600324959513E007C4D
:102530001211127C007F49494936003E4141412237
:10254000007F4141221C007F49494941007F090920
:102550000901003E4149497A007F0808087F0000D0
:10256000417F4100002040413F01007F081422418B
:10257000007F40404040007F020C027F007F040843
:10258000107F003E4141413E007F09090906003E9F
:102590004151215E007F09192946004649494931C8
:1025A0000001017F0101003F4040403F001F2040EB
:1025B000201F003F4038403F0063140814630007A9
:1025C0000870080700615149454300007F41410000
:1025D00000552A552A55000041417F0000040201A0
:1025E000020400404040404000000102040000207E
:1025F00054545478007F48444438003844444420BC
:1026000000384444487F00385454541800087E0968
:1026100001020018A4A4A47C007F08040478000030
:10262000447D4000004080847D00007F10284400ED
:102630000000417F4000007C04180478007C0804FE
:10264000047800384444443800FC2424241800183A
:10265000242418FC007C0804040800485454542026
:1026600000043F444020003C4040207C001C2040AF
:10267000201C003C4030403C004428102844001CF2
:10268000A0A0A07C004464544C44141414141414EA
:10269000000000000000000000000000000000003A
:1026A000000000F8000000000000003330000000CF
:1026B00000100C06100C06000000000000000000D6
:1026C00040C07840C0784000043F04043F04040048
:1026D000007088FC08300000001820FF211E000058
:1026E000F008F000E018000000211C031E211E006D
:1026F00000F00888700000001E21232419272110F3
:1027000010160E0000000000000000000000000095
:10271000000000E01804020000000007182040003C
:1027200000020418E000000000402018070000002C
:10273000404080F0804040000202010F0102020090
:10274000000000F0000000000101011F0101010074
:10275000000000000000000080B0700000000000D9
:102760000000000000000000000101010101010162
:1027700000000000000000000030300000000000F9
:1027800000000000806018040060180601000000CE
:1027900000E010080810E000000F102020100F00CB
:1027A000001010F8000000000020203F2020000052
:1027B00000700808088870000030282422213000AA
:1027C00000300888884830000018202020110E00B2
:1027D0000000C02010F8000000070424243F24005B
:1027E00000F80888880808000019212020110E0030
:1027F00000E0108888180000000F112020110E0042
:1028000000380808C83808000000003F0000000039
:102810000070880808887000001C222121221C00FA
:1028200000E010080810E0000000312222110F0023
:10283000000000C0C00000000000003030000000B8
:102840000000008000000000000080600000000028
:102850000000804020100800000102040810200041
:10286000404040404040400004040404040404008C
:102870000008102040800000002010080402010021
:10288000007048080808F000000000303601000021
:10289000C030C828E810E0000718272423140B00D4
:1028A0000000C038E0000000203C2302022738204E
:1028B00008F8888888700000203F202020110E0032
:1028C000C030080808083800071820202010080029
:1028D00008F808080810E000203F202020100F0012
:1028E00008F88888E8081000203F202023201800DE
:1028F00008F88888E8081000203F20000300000046
:10290000C03008080838000007182020221E0200E6
:1029100008F808000008F808203F210101213F20A5
:10292000000808F8080800000020203F20200000D0
:1029300000000808F8080800C08080807F000000C0
:1029400008F888C028180800203F200126382000F9
:1029500008F8080000000000203F20202020300060
:1029600008F8F800F8F80800203F003F003F20007A
:1029700008F830C00008F808203F200007183F0082
:10298000E01008080810E0000F10202020100F00B1
:1029900008F808080808F000203F210101010000A4
:1029A000E01008080810E0000F18242438504F00E9
:1029B00008F8888888887000203F2000030C3020A9
:1029C00000708808080838000038202121221C00E7
:1029D000180808F8080818000000203F2000000030
:1029E00008F808000008F808001F202020201F0019
:1029F0000878880000C83808000007380E01000079
:102A0000F80800F80008F800033C0700073C030042
:102A1000081868808068180820302C03032C3020A8
:102A20000838C800C83808000000203F2000000017
:102A300010080808C838080020382621202018006F
:102A4000000000FE020202000000007F4040400043
:102A5000000C30C000000000000000010638C0007B
:102A600000020202FE000000004040407F00000023
:102A70000000040202020400000000000000000048
:102A80000000000000000000808080808080808046
:102A9000000202040000000000000000000000002E
:102AA00000008080808000000019242222223F2024
:102AB00008F8008080000000003F112020110E0067
:102AC0000000008080800000000E112020201100F6
:102AD000000000808088F800000E112020103F20A8
:102AE0000000808080800000001F2222222213002C
:102AF000008080F0888888180020203F2020000077
:102B00000000808080808000006B9494949360002B
:102B100008F8008080800000203F210000203F2036
:102B200000809898000000000020203F2020000036
:102B3000000000809898000000C08080807F000026
:102B400008F8000080808000203F24022D30200003
:102B5000000808F8000000000020203F20200000AE
:102B60008080808080808000203F20003F20003FC8
:102B70008080008080800000203F210000203F20D6
:102B80000000808080800000001F202020201F0087
:102B9000808000808000000080FFA12020110E00B6
:102BA0000000008080808000000E112020A0FF80A7
:102BB000808080008080800020203F212000010054
:102BC00000008080808080000033242424241900A9
:102BD000008080E0808000000000001F20200000B6
:102BE0008080000000808000001F202020103F20F7
:102BF000808080000080808000010E300806010087
:102C000080800080008080800F300C030C300F002B
:102C100000808000808080000020312E0E31200056
:102C2000808080000080808080818E701806010086
:102C300000808080808080000021302C22213000A4
:102C400000000000807C020200000000003F4040C5
:102C500000000000FF00000000000000FF00000076
:102C60000002027C800000000040403F00000000A5
:102C70000006010102020404000000000000000040
:102C8000008060F8074020180F08C80808281800BE
:102C90000000000000000000000000000000000034
:102CA000010000FF00100C0340807F0001061800A7
:102CB0000000000000000000000000000000000014
:102CC0001010F01F10F000808282E2928A8680004D
:102CD00000000000000000000000000000000000F4
:102CE000402215081661000040807F0000000000AF
:102CF00000000000000000000000000000000000D4
:102D00002020FF2024F4545454FF545556F404005A
:102D100000000000000000000000000000000000B3
:102D20000000FF00080B1969090B49897D0B080099
:102D30000000000000000000000000000000000093
:102D40004020D04C4344C8102000F80000FF000091
:102D50000000000000000000000000000000000073
:102D600000003F404448474070000F40807F000013
:102D70000000000000000000000000000000000053
:102D8000109453321E325210007E4242427E0000A6
:102D90000000000000000000000000000000000033
:102DA000000000FF49494949494949FF0000000026
:102DB0000000000000000000000000000000000013
:102DC00002FE9292FE0200101116F0141310000081
:102DD00000000000000000000000000000000000F3
:102DE000101F0808FF048141310D030D314181009E
:102DF00000000000000000000000000000000000D3
:102E00002424A4FEA3220022CC0000FF0000000026
:102E100000000000000000000000000000000000B2
:102E2000080601FF00010404040404FF020202007A
:102E30000000000000000000000000000000000092
:102E4000101010FF109008888888FF888888080074
:102E50000000000000000000000000000000000072
:102E60000444827F01808040432C102846818000EA
:102E70000000000000000000000000000000000052
:102E8000DDDDDDDDDCBBBBDDDDDDDDDDDDDDDDDDB7
:102E900098888888888888887777777777888888F7
:102EA000855555566666666666666666666888888F
:102EB0008333333222222222222222222228888D88
:102EC000E02E00080000002050000000681F0008ED
:102ED000302F00085000002030040000781F000848
:102EE00000000000000000000000000000000000E2
:102EF000EA0705120E360001000000000000000085
:102F000000000000000000000102030401020304AD
:102F1000060708090204060800A24A04000000008F
:102F20000000000001020304060708090000000079
:0400000508000131BD
:00000001FF
