:020000040800F2
:1000000090060020CD010008DF0D0008D70D000884
:10001000DB0D0008010B00085D1200080000000065
:10002000000000000000000000000000C10E0008F9
:10003000050B000800000000650E0008D50F000841
:10004000E7010008E7010008E7010008E7010008F0
:10005000E7010008E7010008E7010008E7010008E0
:10006000E7010008E7010008E7010008E7010008D0
:10007000E7010008E7010008E7010008E7010008C0
:10008000E7010008E7010008E7010008E7010008B0
:10009000E7010008E7010008E7010008690B000814
:1000A000E7010008E7010008E7010008E701000890
:1000B00039100008E7010008E7010008E70100081F
:1000C000E7010008E7010008E7010008E701000870
:1000D000E7010008E7010008E7010008E701000860
:1000E000070B0008E7010008E7010008E701000826
:1000F000E7010008E7010008E7010008E701000840
:10010000E7010008E7010008E7010008E70100082F
:10011000E7010008E7010008E7010008E70100081F
:10012000E7010008E7010008E7010008E70100080F
:1001300000F002F800F03AF80AA090E8000C8244BF
:100140008344AAF10107DA4501D100F02FF8AFF29C
:10015000090EBAE80F0013F0010F18BFFB1A43F0A5
:1001600001031847641B0000841B0000103A24BFE1
:1001700078C878C1FAD8520724BF30C830C144BF0C
:1001800004680C607047000000230024002500264E
:10019000103A28BF78C1FBD8520728BF30C148BFEA
:1001A0000B6070471FB51FBD10B510BD00F031F8D2
:1001B0001146FFF7F7FF01F067F800F04FF803B4BE
:1001C000FFF7F2FF03BC00F057F800000948804732
:1001D00009480047FEE7FEE7FEE7FEE7FEE7FEE729
:1001E000FEE7FEE7FEE7FEE704480549054A064B41
:1001F00070470000D90F000831010008900000206E
:100200009006002090020020900200207047704766
:100210007047754600F02CF8AE4605006946534617
:1002200020F00700854618B020B5FFF7DDFFBDE8D8
:1002300020404FF000064FF000074FF000084FF04D
:10024000000B21F00701AC46ACE8C009ACE8C009DE
:10025000ACE8C009ACE8C0098D46704710B504464B
:10026000AFF300802046BDE81040FFF7A8BF0000B4
:10027000004870472C00002001491820ABBEFEE763
:1002800026000200704721B1826842F001028260BC
:1002900003E0826822F001028260704710B50446D4
:1002A0001248844208D10121401500F0F9FD0021D7
:1002B000601500F0F5FD17E00D48844208D10121DA
:1002C000001500F0EDFD0021201500F0E9FD0BE028
:1002D0000848844208D10121C80300F0E1FD002153
:1002E0004FF4004000F0DCFD10BD00000024014090
:1002F00000280140003C0140014600208A6802F0CD
:1003000004020AB1012000E0002070470146C86CD9
:1003100080B270470246002013680B400BB10120E9
:1003200000E000207047014600208A6802F00802C1
:100330000AB1012000E000207047000030B50246FD
:100340000020002350680F4C20400D790C6844EACF
:1003500005242043506090680B4C2040D1E90254A2
:100360002C434D7944EA450420439060D06A20F440
:1003700070000C7C641EE4B2234340EA0350D06258
:1003800030BD0000FFFEF0FFFDF7F1FFF0B50446C1
:100390000D4600200021092D11DDE068A5F10A06B7
:1003A00006EB4607072606FA07F18843A5F10A0679
:1003B00006EB460603FA06F10843E0600CE020690C
:1003C00005EB4507072606FA07F1884305EB4506C6
:1003D00003FA06F108432061072A0FDA606B561E04
:1003E00006EB86071F2606FA07F18843561E06EB22
:1003F000860605FA06F10843606322E00D2A0FDA4B
:10040000206BD61F06EB86071F2606FA07F18843E6
:10041000D61F06EB860605FA06F10843206310E0B6
:10042000E06AA2F10D0606EB86071F2606FA07F121
:100430008843A2F10D0606EB860605FA06F108438D
:10044000E062F0BD816841F008018160704721B130
:10045000826842F4A002826003E0826822F4A00273
:1004600082607047816841F004018160704700003C
:1004700030B10749096841F40001054A116005E0FF
:100480000349096821F40001014A11607047000026
:100490000824014010B56FF0040000F087FD084803
:1004A0000068C0080749B0FBF1F00749086008463A
:1004B000008880B24FF47A7148430449086010BD47
:1004C0001800002040420F00040000200800002017
:1004D000134A12684FF0E0235A6100229A611A46CB
:1004E000126942F001021A610CE000BF4FF0E022F5
:1004F000116901F001021AB101F48032002AF5D02D
:10050000421E90B20028F0D14FF0E022126922F092
:1005100001024FF0E0231A6100229A617047000047
:10052000080000201CB50121084600F0A9FC0D219F
:10053000012000F0A1FB4FF40050009000208DF846
:1005400004000C208DF8050001208DF80600684697
:1005500000F048FB0E21012000F08EFB4FF480409C
:100560000090684600F03EFB0F21012000F084FB64
:100570004FF400400090684600F034FB082103204F
:1005800000F07AFB4FF480700090684600F02AFB80
:100590001CBD10B5FFF7C6FF00F001F810BD08B58F
:1005A00028208DF8000008208DF8010000208DF82B
:1005B000020001208DF80300684600F011FC1720AE
:1005C0008DF8000008208DF8010000208DF8020051
:1005D00001208DF80300684600F002FC08BD000011
:1005E00008B50121282000F04BFC03208DF8020003
:1005F00048208DF803004FF40050ADF80000694624
:100600000D4800F059FB4FF48040ADF800006946FA
:10061000094800F051FB4FF40040ADF80000694676
:10062000054800F049FB4FF48070ADF800006946C2
:10063000024800F041FB08BD000C014000140140DD
:1006400010B5FFF7CDFF10BD08B50121402000F027
:1006500017FC7C20ADF8000003208DF8020010206C
:100660008DF803006946034800F026FBFF2000F0E8
:1006700007F808BD0018014010B5FFF7E5FF10BDF1
:1006800000F0010111B140210D4A116000F002019A
:1006900011B104210A4A116000F0040111B10821CE
:1006A000074A116000F0080111B11021044A1160DD
:1006B00000F0100111B12021014A116070470000C3
:1006C0001018014000F0010111B140210D4A1160E4
:1006D00000F0020111B104210A4A116000F0040186
:1006E00011B10821074A116000F0080111B1102171
:1006F000044A116000F0100111B12021014A11607B
:10070000704700001418014000F0010129B115499B
:10071000096881F04001134A116000F0020129B11B
:100720001049096881F004010E4A116000F00401CB
:1007300029B10C49096881F008010A4A116000F0EA
:10074000080129B10749096881F01001054A1160C3
:1007500000F0100129B10349096881F02001014A24
:10076000116070470C18014070B5002419E004F1C5
:10077000B001C8B2002100F083F90021084600F062
:100780007FF90021102000F07BF9002505E0012110
:10079000FF2000F075F9681CC5B2802DF7DB601CE6
:1007A000C4B2082CE3DB70BD70B5002419E004F17D
:1007B000B001C8B2002100F063F90021084600F042
:1007C0005FF90021102000F05BF9002505E0012110
:1007D000002000F055F9681CC5B2802DF7DB601CC5
:1007E000C4B2082CE3DB70BD08B50121042000F081
:1007F00047FBA020ADF8000010208DF80300032077
:100800008DF8020069460F4800F056FAA0210D4805
:1008100000F0DFFA0121202000F032FB4FF4B0504D
:10082000ADF8000010208DF8030003208DF80200C1
:100830006946054800F040FA4FF4B051024800F014
:10084000C8FA08BD000801400014014010B5FFF7C8
:10085000CBFF00F00FF8FFF787FF10BD10B5024681
:10086000012000E050430B1EA1F10104E1B2F9D1D7
:1008700010BD000010B54FF48051194800F0A9FADE
:100880000A20FFF725FE4FF48051154800F09FFA2B
:100890000A20FFF71DFE4FF48051114800F099FA2D
:1008A0000021AE2000F0ECF80021A12000F0E8F8D3
:1008B0000021C82000F0E4F800218D2000F0E0F8CD
:1008C0000021142000F0DCF80021AF2000F0D8F85F
:1008D000FFF76AFF0021084600F044F810BD000051
:1008E000001401402DE9F04707460C4615461E4608
:1008F000DDE9099ADDF8208000212E2000F0C0F803
:100900000021A32000F0BCF80021484600F0B8F810
:100910000021504600F0B4F808F12901C8B20021C6
:1009200000F0AEF80021012000F0AAF800213846BE
:1009300000F0A6F80021304600F0A2F80021204681
:1009400000F09EF80021284600F09AF800212F20A0
:1009500000F096F8BDE8F08710B500212E2000F0D9
:100960008FF810BD70B504460D4605F1B001C8B250
:10097000002100F085F8102141EA1410002100F058
:100980007FF804F00F00002100F07AF870BD00003D
:100990002DE9F04107460E469046A8F12000C5B269
:1009A0007F2F02DD0027B01CC6B231463846FFF764
:1009B000D9FF002408E004EB05110F4A505C012127
:1009C00000F05EF8601CC4B2082CF4DB701CC1B2ED
:1009D0003846FFF7C7FF002409E004EB0511083192
:1009E000054A505C012100F04BF8601CC4B2082C91
:1009F000F3DBBDE8F0810000D61400082DE9FF5FAD
:100A0000074691461D460E9E4FF0000A002433E033
:100A1000281B401EC1B20A20FFF720FFB9FBF0F0EF
:100A20000A21B0FBF1F201FB1208BAF1000F13D159
:100A3000681EA04210DDB8F1000F0BD1B34606EBE3
:100A4000DB71491001FB0471C8B220220199FFF744
:100A50009FFF0FE04FF0010AB34606EBDB71491030
:100A600001FB0471C8B208F13001CAB20199FFF765
:100A70008FFF00BF601CC4B2AC42C9DBBDE8FF9F62
:100A800070B504460E462EB14FF480611A4800F04E
:100A9000A0F904E04FF48061174800F098F94FF492
:100AA0000071154800F093F9002517E02021134844
:100AB00000F08DF904F0800020B180210F4800F093
:100AC00088F903E080210D4800F081F920210B48CE
:100AD00000F07FF96006040E681CC5B2082DE5DB46
:100AE0004FF40071044800F074F94FF4806102483B
:100AF00000F06FF970BD00000014014000080140D3
:100B000000BFFEE7704710B5172001218140420960
:100B1000920002F1E022C2F8001100BF4FF4005031
:100B200000F04CF830B10220FFF7CCFD4FF400503C
:100B300000F03EF84FF4804000F040F830B1022061
:100B4000FFF79EFD4FF4804000F032F84FF4004074
:100B500000F034F830B10420FFF7B4FD4FF400404A
:100B600000F026F810BD00000EB54FF4807000F0C4
:100B700025F8D0B10D48006860B13F200021012266
:100B80000B46CDE900210290022201210020FFF74F
:100B9000A9FE01E0FFF7E0FE04480068C0430349F6
:100BA00008604FF4807000F003F80EBD00000020D4
:100BB000014908607047000014040140014600200C
:100BC0000022074B1B6803EA0102054B14331B6824
:100BD0000B4013B10AB1012000E000207047000073
:100BE00000040140002123498279002A3AD00A46B4
:100BF000126803689A430B461A600A1D126803685C
:100C00009A430B1D1A60027911440A6803681A435B
:100C10000A60184A0832126803689A43154B083371
:100C20001A601A1D126803689A43124B0C331A603B
:100C30004279102A0ED11A1F126803681A430D4B0D
:100C400008331A601A1D126803681A43094B0C33E3
:100C50001A600DE00749427911440A6803681A4393
:100C60000A6005E0027911440A6803689A430A6041
:100C7000704700000004014030B500228B071C0FB4
:100C80000F2303FA04F20B4B8C1053F824309343D8
:100C9000084C8D1044F8253023468C1053F824302E
:100CA0008C07240F00FA04F42343024C8D1044F8FF
:100CB000253030BD080001402DE9F04102460025F5
:100CC0000026002000230024002791F803C00CF028
:100CD0000F0591F803C00CF0100CBCF1000F03D00D
:100CE00091F802C04CEA050591F800C0BCF1000F74
:100CF00031D0146800202BE04FF0010C0CFA00F307
:100D0000B1F800C00CEA03069E4220D183004FF0E8
:100D10000F0C0CFA03F7BC4305FA03FC4CEA04047D
:100D200091F803C0BCF1280F06D14FF0010C0CFA6A
:100D300000FCC2F814C00AE091F803C0BCF1480FEF
:100D400005D14FF0010C0CFA00FCC2F810C0401C99
:100D50000828D1D31460B1F800C0BCF1FF0F34DD16
:100D6000546800202EE000F1080C4FF0010808FA4A
:100D70000CF3B1F800C00CEA03069E4221D18300B7
:100D80004FF00F0C0CFA03F7BC4305FA03FC4CEAD6
:100D9000040491F803C0BCF1280F05D100F1080C40
:100DA00008FA0CF8C2F8148091F803C0BCF1480F9F
:100DB00007D100F1080C4FF0010808FA0CF8C2F84E
:100DC0001080401C0828CED35460BDE8F0814161FA
:100DD00070470161704700BFFEE700BFFEE7704744
:100DE00070B5002100230F22C47804B3154C246889
:100DF00004F4E064C4F5E064210AC1F10403CA40CC
:100E0000447804FA03F184781440214309010E4C1C
:100E10000678A155047804F01F050124AC4005783C
:100E20006D11AD0005F1E025C5F8004109E0047839
:100E300004F01F050124AC40044D0678761145F8F6
:100E4000264070BD0CED00E000E400E080E100E031
:100E500002490143024A1160704700000000FA0590
:100E60000CED00E07047000001460020034A506886
:100E700020F44040084350607047000000100240DA
:100E800029B1064A92690243044B9A6104E0034A7D
:100E900092698243014B9A61704700000010024042
:100EA00029B1064AD2680243044BDA6004E0034ADF
:100EB000D2688243014BDA607047000000100240A4
:100EC000704710B500F002F810BD00000CB500200E
:100ED000019000903348006840F480303149086048
:100EE00000BF3048006800F4003000900198401CBA
:100EF0000190009818B90198B0F5A06FF1D1294878
:100F0000006800F4003010B10120009001E00020E2
:100F100000900098012843D12348006840F0100059
:100F2000214908600846006820F003000860084670
:100F3000006840F0020008601A484068194948609B
:100F40000846406848600846406840F48060486051
:100F50000846406820F47C1048600846406840F429
:100F6000E81048600846006840F08070086000BFE4
:100F70000C48006800F000700028F9D0094840686B
:100F800020F00300074948600846406840F002002E
:100F9000486000BF0348406800F00C000828F9D101
:100FA0000CBD00000010024000200240042808D1BF
:100FB0004FF0E021096941F004014FF0E022116196
:100FC00007E04FF0E021096921F004014FF0E02231
:100FD000116170477047000010B51348006840F079
:100FE00001001149086008464068104908400E4950
:100FF0004860084600680E4908400B4908600846EA
:10100000006820F4802008600846406820F4FE0054
:1010100048604FF41F008860FFF753FF4FF00060F7
:101020000449086010BD0000001002400000FFF8F5
:10103000FFFFF6FE08ED00E008B50121880700F08B
:1010400086F8002876D03C480078401C3A49087061
:10105000084600783C2811DB0020087037480078EB
:10106000401C36490870084600783C2806DB002002
:10107000087033480078401C314908700121880706
:1010800000F062F80120FFF73FFB2E4800680028BF
:101090000EDB202206210020FFF77AFC102005231A
:1010A00000902848062102680820FFF7A7FC12E0FC
:1010B0002D2206210020FFF76BFC224800684042E9
:1010C0002049086010200523009008460621026888
:1010D0000820FFF793FC202206213020FFF758FC60
:1010E000202206213820FFF753FC10200223009015
:1010F0001348027806214020FFF780FC3A2206219F
:101100005020FFF745FC1020022300900B48027886
:1011100006215820FFF772FC3A2206216820FFF7CB
:1011200037FC10200223009003480278062170202B
:10113000FFF764FC08BD0000160000201500002029
:10114000140000200C000020CA430282704730B512
:101150000246002000230024158A05EA0103958930
:1011600005EA010413B10CB1012000E0002030BDFC
:1011700000B585B0012140F20120FFF781FE4FF458
:101180000040FFF771FE1C48FFF788F80020009030
:1011900001208DF804008DF805004FF460200290C6
:1011A0000020039001208DF8100069461248FFF7D7
:1011B000C5F80723012210210F48FFF7E7F80121A6
:1011C0000D48FFF760F80120FFF752F90A48FFF7D2
:1011D00039F900BF0848FFF7A6F80028FAD10648F9
:1011E000FFF740F900BF0448FFF786F80028FAD15E
:1011F00000F036F805B000BD0024014010B50446EB
:101200000723012221460948FFF7C0F801210748BA
:10121000FFF71DF900BF02210448FFF77BF8002803
:10122000F9D00248FFF772F810BD00000024014019
:101230002DE9F04107460C460025002608E0384617
:10124000FFF7DCFF05440520FFF742F9701CC6B22A
:10125000A642F4DBB5FBF4F0BDE8F08100BFFEE789
:1012600010B514211120FFF7E3FF044640F6E441D6
:1012700004FB01F0C11700EB11510913014A116081
:1012800010BD00001000002000BF4FF44070FFF7B9
:10129000DFFDFFF7F1F9FFF7FDF8FFF7D7FAFFF7EA
:1012A000CFF9FFF776F9FFF763FF00BFFEE7000015
:1012B000000000000000002F0000000007000700F1
:1012C00000147F147F1400242A7F2A12006264080D
:1012D000132300364955225000000503000000008A
:1012E0001C224100000041221C000014083E08148A
:1012F0000008083E0808000000A060000008080878
:101300000808000060600000002010080402003E91
:101310005149453E0000427F40000042615149462C
:10132000002141454B31001814127F10002745451C
:101330004539003C4A49493000017109050300362E
:101340004949493600064949291E00003636000041
:101350000000563600000008142241000014141446
:101360001414000041221408000201510906003241
:101370004959513E007C1211127C007F494949367F
:10138000003E41414122007F4141221C007F4949EA
:101390004941007F09090901003E4149497A007F1E
:1013A0000808087F0000417F4100002040413F01C4
:1013B000007F08142241007F40404040007F020C23
:1013C000027F007F0408107F003E4141413E007FC4
:1013D00009090906003E4151215E007F091929468D
:1013E0000046494949310001017F0101003F404069
:1013F000403F001F2040201F003F4038403F006317
:101400001408146300070870080700615149454338
:1014100000007F41410000552A552A5500004141F6
:101420007F000004020102040040404040400000F0
:1014300001020400002054545478007F484444388A
:1014400000384444442000384444487F0038545411
:10145000541800087E0901020018A4A4A47C007F8F
:10146000080404780000447D4000004080847D0032
:10147000007F102844000000417F4000007C0418D9
:101480000478007C0804047800384444443800FCA4
:10149000242424180018242418FC007C08040408C0
:1014A00000485454542000043F444020003C404035
:1014B000207C001C2040201C003C4030403C00446C
:1014C00028102844001CA0A0A07C004464544C4474
:1014D0001414141414140000000000000000000094
:1014E000000000000000000000F800000000000004
:1014F00000333000000000100C06100C0600000045
:1015000000000000000040C07840C0784000043F68
:1015100004043F040400007088FC08300000001838
:1015200020FF211E0000F008F000E018000000215C
:101530001C031E211E0000F00888700000001E2100
:1015400023241927211010160E00000000000000AF
:10155000000000000000000000E01804020000008D
:1015600000071820400000020418E00000000040BE
:10157000201807000000404080F080404000020238
:10158000010F01020200000000F000000000010154
:10159000011F01010100000000000000000080B0F8
:1015A00070000000000000000000000000000001CA
:1015B00001010101010100000000000000000030F5
:1015C000300000000000000000008060180400608F
:1015D00018060100000000E010080810E000000FED
:1015E000102020100F00001010F800000000002054
:1015F000203F20200000007008080888700000309C
:101600002824222130000030088888483000001843
:10161000202020110E000000C02010F8000000075C
:101620000424243F240000F80888880808000019D2
:10163000212020110E0000E0108888180000000F03
:10164000112020110E0000380808C83808000000DA
:10165000003F000000000070880808887000001C2F
:10166000222121221C0000E010080810E0000000E8
:10167000312222110F00000000C0C0000000000055
:10168000003030000000000000800000000000007A
:101690008060000000000000804020100800000171
:1016A0000204081020004040404040404000040434
:1016B00004040404040000081020408000000020FE
:1016C000100804020100007048080808F00000003B
:1016D000003036010000C030C828E810E0000718CC
:1016E000272423140B000000C038E0000000203C39
:1016F00023020227382008F8888888700000203FDD
:10170000202020110E00C0300808080838000718F3
:1017100020202010080008F808080810E000203FEA
:10172000202020100F0008F88888E8081000203FCB
:1017300020202320180008F88888E8081000203F9F
:10174000200003000000C030080808380000071817
:101750002020221E020008F808000008F808203F98
:10176000210101213F20000808F80808000000209E
:10177000203F2020000000000808F8080800C08072
:1017800080807F00000008F888C028180800203FEB
:1017900020012638200008F8080000000000203F43
:1017A00020202020300008F8F800F8F80800203F3A
:1017B000003F003F200008F830C00008F808203F34
:1017C000200007183F00E01008080810E0000F1084
:1017D000202020100F0008F808080808F000203F1B
:1017E000210101010000E01008080810E0000F18B6
:1017F000242438504F0008F8888888887000203FDB
:101800002000030C302000708808080838000038D9
:10181000202121221C00180808F8080818000000E0
:10182000203F2000000008F808000008F808001F0A
:10183000202020201F000878880000C838080000F9
:1018400007380E010000F80800F80008F800033C13
:101850000700073C030008186880806818082030DB
:101860002C03032C30200838C800C83808000000BA
:10187000203F2000000010080808C8380800203861
:10188000262120201800000000FE020202000000B5
:10189000007F40404000000C30C00000000000000D
:1018A00000010638C00000020202FE0000000040F5
:1018B00040407F000000000004020202040000001B
:1018C0000000000000000000000000000000808018
:1018D0008080808080800002020400000000000000
:1018E00000000000000000008080808000000019DF
:1018F000242222223F2008F8008080000000003FC0
:10190000112020110E000000008080800000000ED9
:10191000112020201100000000808088F800000EB7
:10192000112020103F200000808080800000001FD8
:10193000222222221300008080F08888881800204C
:10194000203F202000000000808080808000006B0D
:1019500094949493600008F8008080800000203FF9
:10196000210000203F200080989800000000002007
:10197000203F20200000000000809898000000C058
:101980008080807F000008F8000080808000203F79
:1019900024022D302000000808F80000000000207C
:1019A000203F202000008080808080808000203FB9
:1019B00020003F20003F8080008080800000203F8A
:1019C000210000203F200000808080800000001F58
:1019D000202020201F00808000808000000080FFE9
:1019E000A12020110E000000008080808000000EE9
:1019F000112020A0FF808080800080808000202037
:101A00003F212000010000008080808080000033A2
:101A1000242424241900008080E08080000000003D
:101A2000001F202000008080000000808000001F38
:101A3000202020103F2080808000008080800001D6
:101A40000E300806010080800080008080800F300A
:101A50000C030C300F00008080008080800000208C
:101A6000312E0E31200080808000008080808081B7
:101A70008E70180601000080808080808000002128
:101A8000302C2221300000000000807C0202000087
:101A90000000003F404000000000FF000000000088
:101AA0000000FF0000000002027C800000000040F7
:101AB000403F000000000006010102020404000093
:101AC000000000000000008060F8074020180F08A8
:101AD000C8080828180000000000000000000000EE
:101AE000000000000000010000FF00100C03408017
:101AF0007F00010618000000000000000000000048
:101B00000000000000001010F01F10F00080828222
:101B1000E2928A86800000000000000000000000C1
:101B200000000000000040221508166100004080FF
:101B30007F00000000000000000000000000000026
:101B40000000000000002020FF2024F4545454FF23
:101B5000545556F40400000000000000000000008E
:101B60000000000000000000FF00080B1969090BCD
:101B700049897D0B08000000000000000000000003
:101B80000000000000004020D04C4344C81020005A
:101B9000F80000FF0000000000000000000000004E
:101BA00000000000000000003F4044484740700033
:101BB0000F40807F000000000000000000000000D7
:101BC000000000000000109453321E325210007EBC
:101BD0004242427E000000000000000000000000C1
:101BE000000000000000000000FF49494949494940
:101BF00049FF00000000000000000000000000009D
:101C000000000000000002FE9292FE020010111679
:101C1000F01413100000000000000000000000009D
:101C2000000000000000101F0808FF048141310D72
:101C3000030D3141810000000000000000000000A1
:101C40000000000000002424A4FEA3220022CC00F7
:101C500000FF000000000000000000000000000085
:101C6000000000000000080601FF00010404040455
:101C700004FF02020200000000000000000000005B
:101C8000000000000000101010FF109008888888E5
:101C9000FF888888080000000000000000000000A5
:101CA0000000000000000444827F01808040432C3B
:101CB00010284681800000000000000000000000A5
:101CC0000000000000000000E81C000800000020E8
:101CD0002C0000006C010008141D00082C000020DE
:101CE00064060000880100080000000000000000F9
:101CF0000000000000000000E40C00000A1E0000CC
:101D000000A24A04000000000000000001020304D9
:041D100006070809B1
:0400000508000131BD
:00000001FF
